:020000040800F2
:10000000A815002005010008E7230008A31D00082B
:10001000E1230008350700085D2A00080000000001
:10002000000000000000000000000000352500086E
:100030006F07000800000000E923000837250008CA
:100040001F0100081F0100081F0100081F01000810
:100050001F0100081F0100081F0100081F01000800
:100060001F0100081F0100081F0100081F010008F0
:100070001F0100081F0100081F0100081F010008E0
:10008000390700081F0100081F0100081F010008B0
:100090001F0100081F0100081F0100081F010008C0
:1000A0001F0100081F0100081F0100081F010008B0
:1000B0001F0100081F0100081F0100081F010008A0
:1000C0001F0100081F0100081F0100081F01000890
:1000D0001F010008392A0008452A00081F010008EE
:1000E0001F0100081F0100081F010008DFF810D0E1
:1000F00000F042FA0048004799330008AFF300804F
:10010000A81500200648804706480047FEE7FEE79E
:10011000FEE7FEE7FEE7FEE7FEE7FEE7FEE7FEE7B7
:1001200099250008ED000008202A04DB203A21FA76
:1001300002F00021704721FA02F3D040C2F1200200
:100140009140084319467047D2B201E000F8012BF4
:10015000491EFBD270470022F6E710B513460A4647
:1001600004461946FFF7F0FF204610BD421C10F868
:10017000011B0029FBD1801A704730B50B460146A0
:1001800000202022012409E021FA02F59D4205D336
:1001900003FA02F5491B04FA02F52844151EA2F1E0
:1001A0000102F1DC30BD2DE9F05F054600209246EA
:1001B0009B4688460646814640241BE02846414629
:1001C00047462246FFF7B0FF53465A46C01A9141B0
:1001D00010D311461846224600F0E0F92D1A67EBBD
:1001E00001084F4622460120002100F0D7F917EB05
:1001F00000094E41201EA4F10104DFDC48463146CF
:100200002A464346BDE8F09F2DE9FE4F804681EA2D
:100210000300C00F0C46009021F0004123F0004580
:10022000B8EB0200A94105D24046214690461C4643
:100230000B46024623F00040104347D0270DC7F37A
:100240000A00C3F30A510290401A019040286BDA69
:10025000C3F3130040F4801B0098924620B10023A2
:10026000D2EB030A63EB0B0B01985946C0F1400235
:10027000504600F093F906460D4650465946019AFD
:1002800000F09BF910EB08006141002487EA11524D
:1002900084EAE7731A4340D0009A62B3019A012AB4
:1002A0004FEA075215DC001B61EB02014FF00042E0
:1002B00002EA0752CDE90042001C41F580113246A6
:1002C0002B4600F09BF903B0BDE8F08F4046214675
:1002D000F9E7001B61EB0201001C41F580130018D7
:1002E0005B412018A2F5001747EB030140EAD570E7
:1002F000B6196D4111E06D084FEA360645EAC07542
:100300004FEA0752001B61EB0201001C41F580110E
:1003100049084FEA30000019514132462B4603B0DC
:10032000BDE8F04F00F05BB90098012240000023C7
:10033000D0EB020263EBE073009821464FEAE074D1
:10034000B8EB000061EB0401E9E783F000435BE7F1
:1003500081F0004158E72DE9FE4F81EA030404F0E3
:10036000004421F0004100944FF0000B23F00043C3
:1003700050EA01045ED052EA03045BD0C3F30A548E
:10038000C1F30A552C44A4F2F3340194A0FB0254A7
:10039000C1F3130141F48011C3F3130343F4801339
:1003A00001FB024400FB034E840A970A44EA81548D
:1003B00047EA8357A4FB076802958D0A05FB07856A
:1003C0004FEA932C04FB0C542705029D4FEA065874
:1003D00047EA1637B5EB08056EEB070C870E920E51
:1003E00047EA811742EA8312A7FB0201B6EB0B0131
:1003F00064EB00042B0D43EA0C335E1844EB1C50F5
:10040000DA465146E7FB0201C5F313044FEA0B330A
:1004100043EA14534FEA0432019C43EA0603A4F171
:100420000C040294009CCDE900B400F0E7F803B09E
:10043000BDE8F08F00200146F9E72DE9F04D81EA93
:10044000030404F0004B21F0004514464FF0000A6D
:1004500023F0004150EA050220D054EA01021DD0E9
:10046000C5F30A570246C5F31303C1F31300C1F3E2
:100470000A5640F4801543F48013A7EB0608101BBE
:10048000D64608F2FD3873EB050002D308F10108E7
:1004900001E092185B41B8F1000F03DA0020014639
:1004A000BDE8F08D00204FF48011064684460EE032
:1004B000171B73EB050705D3121B63EB05030643FC
:1004C0004CEA010C49084FEA300092185B4150EAAF
:1004D0000107EDD152EA030012D082EA040083EA58
:1004E0000501084305D0101BAB4106D201220023B1
:1004F00006E000224FF0004302E06FF001025310CB
:100500001AEB06004CEB085110EB0A0041EB0B0113
:10051000BDE8F04D00F063B8C1F30A52C1F3130116
:1005200040F2FF3341F480119A4202DA0020014682
:10053000704740F233439A42A2F2334202DC524205
:10054000FFF7F2BD00F02AB830B5041E71F10004C7
:1005500004DB4FF00044404264EB0101141E73F1D0
:10056000000405DB1C464FF00043524263EB0403DA
:10057000994208BF904230BD064C074D06E0E06846
:1005800040F0010394E8070098471034AC42F6D3DA
:10059000FFF7B0FD086E0008286E0008202A04DB73
:1005A000203A00FA02F1002070479140C2F1200386
:1005B00020FA03F3194390407047202A06DBCB173B
:1005C000203A41FA02F043EAE07306E041FA02F30E
:1005D000D040C2F12002914008431946704710B53F
:1005E000141E73F1000408DA401C41F10001921856
:1005F0005B411A4301D120F0010010BD2DE9F04DFF
:1006000092469B4611B1B1FA81F202E0B0FA80F253
:1006100020329046FFF7C2FF04460F4640EA0A0028
:1006200041EA0B0153465A46084313D0114653EA98
:10063000010019D0C8F140025046FFF775FD05468C
:100640000E46504659464246FFF7A8FF084305D0DC
:10065000012004E020463946BDE8F08D0020054326
:1006600046EAE0762C4337430A986305E40AA0EB98
:1006700008000022FD0A44EA47540A3002D500204F
:100680000146E9E7010510196941DDE9084500194E
:100690006941BDE8F04DA2E77CB512A0124D00689B
:1006A0004FF48054009000222146284600F0E4FADE
:1006B0004FF47A763346012269460C4800F02AFF4F
:1006C0003346012201A9094800F07AFE01222146A1
:1006D000284600F0D1FA9DF80400C00700D002209F
:1006E0007CBD000005000000000C0140140000204B
:1006F00038B50DA00D4D00684FF4805400900022D5
:100700002146284600F0B8FA4FF47A73022269466F
:10071000074800F0FFFE01222146284600F0ACFA0F
:10072000BDE83840FFF7B8BF66990000000C0140F3
:1007300014000020FEE70000014800F08BB8000024
:100740006011002030B590F840500124AC40C56BDA
:100750006C60046863604368102B036803D0996081
:100760000068C26030BD9A600068C16030BD7047EB
:1007700072B6FEE710B590F821100022022905D0CC
:100780000421816380F82020012010BD01680B68DE
:1007900023F00E030B6001680B6823F001030B606C
:1007A00090F84030C46B012101FA03F3636080F8D4
:1007B000211080F82020104610BD000010B590F8E0
:1007C00021100024022903D00421816301243DE08B
:1007D00001680A6822F00E020A6001680A6822F0C5
:1007E00001020A601A4A0168914201D1012121E007
:1007F000174A1432914201D110211BE0144A2832C9
:10080000914201D1891515E0114A3C32914201D142
:1008100089140FE00E4A5032914202D14FF48031D8
:1008200008E00B4A6432914202D14FF4801101E09A
:100830004FF08071064A083A5160012180F821107A
:10084000002180F82010416B01B18847204610BD7F
:10085000080002402DE9F05FC16B0C6801680B686D
:10086000D0F840C0042202FA0CF2494DDFF824A16E
:10087000494E4A4FDFF828B1DFF828E122422CD058
:100880005A072AD50A68920603D40A6822F004029D
:100890000A600168A94201D1042219E0514501D141
:1008A000402215E0B14202D14FF4806210E0B9421B
:1008B00002D14FF480420BE0594502D14FF480221F
:1008C00006E0714502D14FF4800201E04FF08062F2
:1008D0002F4908394A60C16A3BE04FF0020808FA24
:1008E0000CF818EA040F4FF000094FF0010235D060
:1008F0005FEA837832D50B689B0605D40B6823F03A
:100900000A030B6080F821200168A94201D102226C
:1009100019E0514501D1202215E0B14202D14FF436
:10092000007210E0B94202D14FF400520BE0594579
:1009300002D14FF4003206E0714502D14FF40012AB
:1009400001E04FF00072124908394A6080F82090A7
:10095000816A00291AD0BDE8F05F0847082505FA2A
:100960000CF5254212D01B0710D50B6823F00E039F
:100970000B6090F84010C36B02FA01F1596082637A
:1009800080F8212080F82090016BE2E7BDE8F09F1D
:10099000080002401C0002403000024044000240B7
:1009A000580002406C00024030B528B308C8134913
:1009B00014221944B1FBF2F18900C163104981632B
:1009C000022141771A6843F6F0718A43D0E9001496
:1009D0002143D0E902452C43214304692143446962
:1009E000214384692143114319600021416301229D
:1009F00042770177084630BD012030BDF8FFFDBFCA
:100A00000000024070B5044690F82000002501283F
:100A10000CD0012084F8200094F821600020012EE1
:100A200006D084F820000225284670BD022070BD43
:100A3000022684F82160A0632068066826F001067B
:100A400006602046FFF77EFEE06A00282068016805
:100A500002D041F00E0106E021F00401016020689F
:100A6000016841F00A0101602068016841F001015C
:100A70000160D9E770B5044600F004F90546601C32
:100A800002D004480078044400F0FCF8401BA04267
:100A9000FAD370BD040000202DE9F84FDFF8B891BB
:100AA0000024A9F1040B23460F2709F1040AABF136
:100AB000040EC9E00125A5402A40AA427DD1674E17
:100AC000D1F804C0ACEB0608B44532D014DCBCF15C
:100AD000030F3AD009DCBCF1000F2AD0BCF1010FA2
:100AE0001CD0BCF1020F31D11DE0BCF1110F17D0A9
:100AF000BCF1120F2AD119E0B8F5881F19D006DC15
:100B0000B8F5803F15D0B8F5801F1FD111E0B8F5BA
:100B1000001F0ED0B8F5041F18D10AE0CB6815E00D
:100B2000CB681B1D12E0CB6808330FE0CB680C3399
:100B30000CE08B682BB1012B4FF0080303D045610B
:100B400004E0042302E0056100E00023FF2A01D84D
:100B5000064601E000F104064FEA840501D9A5F13B
:100B60002005D6F8008007FA05FC28EA0C0803FAED
:100B700005F548EA0508C6F800804D68ED0062D525
:100B8000374DAE6946F00106AE61AD6924F003064B
:100B900005F001050095334D06EB050CDCF8085017
:100BA000A607360F07FA06F825EA0805DFF8B88029
:100BB000404503D14FF0000817E044E0DFF8AC8077
:100BC000404502D14FF001080FE0DFF8A480404516
:100BD00002D14FF0020808E0DFF89880404502D1CA
:100BE0004FF0030801E04FF0040808FA06F848EA5D
:100BF0000508CCF808804D68D9F80060ED024D4634
:100C000001D5164300E096432E604D68DAF8006087
:100C1000AD02554601D5164300E096432E604D685F
:100C2000DBF80060AD035D4601D5164300E0964356
:100C30002E604D68DEF80060ED03754601D5164361
:100C400000E096432E60641C0D682A46E5407FF460
:100C500031AFBDE8F88F000008040140000011101A
:100C6000001002400000014000080140000C01405B
:100C700000100140001401400AB1016170470904ED
:100C8000FBE7000001488068704700000400002076
:100C90000248816802781144816070470400002096
:100CA000074810B5016841F010010160032000F011
:100CB00075F80F2000F006F800F024F8002010BDB1
:100CC0000020024070B50D4D04464FF47A7128782B
:100CD000B1FBF0F00A490968B1FBF0F000F0C5FD86
:100CE00048B9102C07D200222146501E00F036F8D9
:100CF00000206C6070BD012070BD00000400002069
:100D0000100000200C4808B5816941F001018161A3
:100D1000816901F001010091C16941F08051C16117
:100D2000C06900F0805000900448416821F0E06103
:100D300041F00071416008BD001002400000014018
:100D4000002809DB00F01F020121914040098000CA
:100D500000F1E020C0F8001170470000F0B40E4B25
:100D60001B680C46C3F30223C3F10705042D00D909
:100D70000425191D072901D2002300E0DB1E0126EE
:100D800006FA05F1491E214099409E40761E164004
:100D90003143F0BC01F076BE0CED00E0064900F0F6
:100DA000070208684FF6FF03184040EA0220034A92
:100DB00010430860704700000CED00E00000FA05E9
:100DC0002DE9F0470F46050061D0434E306800F032
:100DD0000700B84209D2306820F00700384330607D
:100DE000306800F00700B84251D128683B4C8107B9
:100DF00012D5400703D5606840F4E0606060287851
:100E0000000703D5606840F4605060606068A968BE
:100E100020F0F000084360602878C00728D0686898
:100E2000012810D02168022810D0890700292EDA65
:100E3000616821F0030101436160FFF723FF8046F1
:100E400041F288390DE021688903EFE78901EDE778
:100E5000FFF718FFA0EB0801494502D90320BDE8C0
:100E6000F0876068696800F00C00B0EB810FEFD18B
:100E7000306800F00700B8420BD9306820F0070056
:100E800038433060306800F00700B84201D00120DC
:100E9000E5E72878400705D56068E96820F4E06058
:100EA000084360602878000706D56068296920F447
:100EB000605040EAC100606000F038F86168084A9C
:100EC000C1F30311515CC840064908600648006838
:100ED000FFF7F8FE0020C2E70020024000100240A9
:100EE000D234000810000020080000200448054902
:100EF00000684968044AC1F30221515CC840704748
:100F00001000002000100240E234000804480549A7
:100F100000684968044AC1F3C221515CC840704767
:100F20001000002000100240E23400080E4A516810
:100F30000E4801F00C03042B11D0082B0FD10C48E4
:100F4000C1F38343C903C05C0AD55168084AC1F3A1
:100F50004041921E515C054A5043B0FBF1F070478E
:100F600004494843704700000010024000127A0014
:100F7000C234000800093D002DE9F84F040070D08C
:100F80002078C04DC00749D06868C0F381000128AF
:100F900007D06868C0F38100022809D16868C003DF
:100FA00006D52868800339D560680028E7D035E089
:100FB0006068B0F5803F0BD010B1B0F5A02F11D014
:100FC000286820F480302860286820F4802002E01F
:100FD000286840F480302860606890B1FFF752FEC6
:100FE00006460AE0286840F480202860F0E700BF49
:100FF000FFF748FE801B642873D828688003F7D564
:101000000CE0FFF73FFE064605E000BFFFF73AFEA3
:10101000801B6428F0D828688003F7D420789A4E83
:1010200080074FF001094FF0000839D5686810F0CB
:101030000C0F07D06868C0F38100022809D16868E6
:10104000C00306D42868800714D52069012808D178
:1010500010E02069B0B1C6F80090FFF713FE074614
:1010600005E00AE1FFF70EFEC01B0228C4D828687D
:101070008007F7D52868616920F0F80040EAC100D0
:1010800028600DE0C6F80080FFF7FCFD074604E08D
:10109000FFF7F8FDC01B022823D828688007F7D483
:1010A000207800072CD57948A169D9B1C0F8009003
:1010B000FFF7E8FD074604E0FFF7E4FDC01B022848
:1010C0000FD8686A8007F7D571484FF4FA51006865
:1010D000B0FBF1F0009000BF0098411E0091FAD2E1
:1010E0000EE080E0C0F80080FFF7CCFD074604E08A
:1010F000FFF7C8FDC01B022875D8686A8007F7D4BF
:101100002078400760D5E8690027C00008D4E86966
:1011100040F08050E861E869012700F080500090BD
:101120005C480168C90513D40168834641F48071A5
:101130000160FFF7A7FD824606E000BFFFF7A2FDB2
:10114000A0EB0A0064284ED8DBF80000C005F5D5F6
:10115000E06801280AD008B1052813D0286A20F0D9
:1011600001002862286A20F0040002E0286A40F0AA
:1011700001002862E06841F2883B98B1FFF782FDE8
:1011800082460BE0286A40F004002862EEE700BFC8
:10119000FFF778FDA0EB0A0159455AD8286A800765
:1011A000F6D50CE0FFF76EFD824605E0FFF76AFD1D
:1011B000A0EB0A0159454CD8286A8007F6D41FB124
:1011C000E86920F08050E861E06988B36968C1F39C
:1011D0008101022944D00228C6F8608004D0FFF7BC
:1011E00051FD044638E034E0FFF74CFD074604E0CB
:1011F000FFF748FDC01B02282BD828688001F7D4D0
:10120000206AB0F5803F05D16868A16820F40030FD
:1012100008436860D4E908010843696821F474113F
:1012200008436860C6F86090FFF72CFD044606E0AE
:1012300025E000BFFFF726FD001B022809D828681B
:101240008001F7D51BE000BFFFF71CFD001B022843
:1012500002D90320BDE8F88F28688001F4D40EE09D
:101260000128F7D06868226A00F48031914204D1E5
:10127000616A00F47010884201D00120EAE7002082
:10128000E8E70000001002400000424280044242B1
:10129000100000200070004070B5040009D0606AA2
:1012A000002540B125616561A56294F8510040B107
:1012B0000CE0012070BD6068B0F5827FF4D0E5617C
:1012C000F2E784F85050204600F040F8022084F8FD
:1012D00051002068016821F040010160A088218947
:1012E00000F4827001F404410843A18901F4006113
:1012F0000843217C01F002010843217D01F0010136
:101300000843218B01F400710843217F01F038016B
:10131000084394F8201001F080010843218D01F466
:101320000051084321680860A069042101EA1040C7
:10133000216848602068C16921F40061C161656568
:10134000012084F85100002070BD000030B585B048
:101350000024009401940294039400681549884283
:1013600025D11548C16941F48041C161C16901F4C9
:1013700080410491816941F00801816180690F4DCC
:1013800000F0080004904FF42040009002200190EB
:101390000320039069462846FFF77EFB4FF4804008
:1013A000CDE90004694628460294FFF775FB05B0B5
:1013B00030BD00000038004000100240000C014029
:1013C0002DE9F84F044690F851001D4616460F4689
:1013D000012838D160684FF00408B0F5827F01D150
:1013E000A06830B3FFF74EFC8246002F75D0002E68
:1013F00073D094F85000012825D04FF0010984F8EB
:10140000509084F851804FF00008C4F85480A763CE
:10141000A687E687C4F83080A4F83480A4F8368024
:10142000C4F84080C4F84480A068B0F5004F0CD0E8
:1014300015E084F85180009313460A46204600F0D8
:101440001CF9BDE8F88F0220FBE72068016821F055
:10145000400101602068016821F48041016020683A
:101460000168490603D4016841F040010160E06869
:10147000C0B134E020688168C90709D0007BA16B46
:101480000870A06B401CA063E08F401EE08709E05D
:10149000FFF7F8FBA0EB0A00A84202D3681C01D0BA
:1014A00032E085B3E08F0028E4D11BE0206881683A
:1014B000C90709D0C068A16B0880A06B801CA0631D
:1014C000E08F401EE0870AE0FFF7DCFBA0EB0A009C
:1014D000A84203D3681C02D016E012E09DB1E08F51
:1014E0000028E3D152462946204600F07EFF08B18D
:1014F0002020606584F8519084F85080606D002849
:101500009FD001209DE7FFE784F8519084F8508038
:10151000032096E72DE9F84F984616468A4604467A
:10152000FFF7B0FB814694F8510001281ED1BAF1B3
:10153000000F73D0002E71D094F85000012815D000
:10154000012784F85070032084F851000025656558
:10155000C4F830A0A686E686A563A587E5876564FE
:101560002564A068B0F5004F03D00CE00220BDE870
:10157000F88F2068016821F040010160206801684F
:1015800041F48041016020680168490603D4016884
:1015900041F040010160E068B0F5006F606803D081
:1015A00048B3012E27D047E008B1012E1FD1206B90
:1015B00021680088C86006E020688168890709D52D
:1015C000216B0988C160206B801C2063E08E401E67
:1015D000E0860CE0FFF756FBA0EB0901414503D381
:1015E000B8F1FF3F03D035E0B8F1000F32D0E08E04
:1015F0000028E1D123E0206B21680078087306E021
:101600002068816889070AD5216B09780173206BEE
:10161000401C2063E08E401EE0860DE02BE0FFF7CB
:1016200031FBA0EB0901414503D3B8F1FF3F03D0E3
:1016300010E0B8F1000F0DD0E08E0028E0D14A464E
:101640004146204600F0FFFE08B120206065A068FA
:1016500030B109E084F8517084F85050032086E7D7
:101660002068C1688068009084F8517004F8505F69
:1016700060680028F3D0012079E72DE9FF4F81B0A1
:101680001D46934604464FF001090E9EFFF7FAFAF5
:10169000074694F851006168012806D0B1F5827FB1
:1016A0003CD1A168C9BB042838D10298002871D068
:1016B000BBF1000FFBD0002DF9D094F850000128A9
:1016C0002CD04FF0010A84F850A094F8510004285F
:1016D00002D0052084F851004FF00008C4F854806F
:1016E000C4F838B0E587A58702992163E586A58609
:1016F000C4F84080C4F8448020680168490603D4D7
:10170000016841F040010160E068B0F5006F606879
:1017100008D0F0B3012D49D081E0FFE7022005B0E9
:10172000BDE8F08F08B1012D39D1206B2168008808
:10173000C860206B801C2063E08E401EE0862EE097
:101740002068816889070FD5E18E69B1B9F1010F71
:101750000AD1216B0988C160206B801C2063E08E58
:10176000401EE0864FF0000920688168C9070CD050
:10177000E18F51B1C068A16B0880A06B801CA06391
:10178000E08F401EE0874FF00109FFF77BFAC01B96
:1017900001E00BE067E0B04201D3701C50D1E08E55
:1017A0000028CDD1E08F0028CAD13EE0206B21680F
:1017B00000780873206B401C2063E08E401EE0869A
:1017C0002DE02068816889070FD5E18E69B1B9F1F4
:1017D000010F0AD1216B09780173206B401C206333
:1017E000E08E401EE0864FF0000920688168C9073E
:1017F0000CD0E18F51B1C068A16B0870A06B401C88
:10180000A063E08F401EE0874FF00109FFF73AFA2E
:10181000C01BB04202D3701C01D011E086B1E08E33
:101820000028CED1E08F0028CBD13A463146204661
:1018300000F009FE50B12020606584F8508012E06D
:1018400084F851A084F85080032068E7A06818B994
:101850002068C1688068009084F851A084F85080A6
:10186000606D0028F1D0012059E710B5401EB0F19D
:10187000807F01D3012010BD4FF0E02460610F2173
:10188000601701F0FFF80020A06107202061002010
:1018900010BD704710B504460068406994F84110C7
:1018A000C0F3C010212911D180B12068143050E854
:1018B000001F21F0800140E80012002AF5D1A06B42
:1018C00008B1FEF757FF204600F01EFF2068406970
:1018D00094F84210C0F38010222911D180B1206801
:1018E000143050E8001F21F0400140E80012002AA7
:1018F000F5D1E06B08B1FEF73DFF204600F0DDFEBC
:10190000002010BD70470000F8B501680446086863
:10191000CA684B6910F00F0F4FF0000559D003F063
:10192000010602F49077374365D0C10705D0D10591
:1019300003D5616C41F001016164410705D5D90708
:1019400003D0616C41F002016164810705D5D907BC
:1019500003D0616C41F004016164010707D502F016
:101960002001314303D0616C41F008016164616C76
:1019700000293AD0800604D5900602D5204600F012
:101980001BFF20684069616CC0F38010090700D418
:1019900060B3204600F091FE20684069400621D5E2
:1019A0002068143050E8001F21F0400140E8001288
:1019B000002AF5D1E06BA8B16D494163E06BFEF7F9
:1019C000FDFE002811D0E06B416B01B0BDE8F04096
:1019D000084783060FD593060DD52046BDE8F8408D
:1019E00000F0EABE2046FFF78DFFF8BD2046FFF766
:1019F00089FF6564F8BD266B2023012E7CD1C606C5
:101A00007AD5D60678D508684868009048694FF0BE
:101A10000206400640D5E16B086840680004000CEF
:101A2000E8D0A28D8242E5D9E085886920282DD0B2
:101A300020680C3050E8001F21F4807140E800124B
:101A4000002AF5D12068143050E8001F21F0010170
:101A500040E80012002AF5D12068143050E8001F39
:101A600021F0400140E80012002AF5D184F842300C
:101A7000256320680C3050E8001F21F0100140E879
:101A80000012002AF5D1E06BFEF774FE6663A08DAC
:101A9000E18D401A81B22AE0A08DE18D401A81B219
:101AA000E08D0028A6D00029A4D022680C3252E88C
:101AB000000F20F4907042E80007002FF5D1206855
:101AC000143050E8002F22F0010240E80027002FD8
:101AD000F5D184F84230256320680C3050E8002F9F
:101AE00022F0100240E80023002BF5D16663204667
:101AF000FFF7CFFEF8BDFFE705062BD5150629D564
:101B000094F841002128F5D1A068B0F5805F01D19B
:101B10002069B0B1206A411C2162216800784860C8
:101B2000E08C401E0004000CE084E3D12068C16812
:101B300021F08001C1602068C16841F04001C160AE
:101B4000D8E7206A0088C0F308004860206A801C3B
:101B50002062E5E74006CDD55006CBD5CA682046C1
:101B600022F04002CA6084F8413000F019F9C1E760
:101B7000BD25000870B5040004D094F8410000258C
:101B800010B106E0012070BD84F84050204600F0FE
:101B900023F8242084F841002068C16821F4005112
:101BA000C160204600F06AFE2068016921F490417E
:101BB00001612068416921F02A0141612068C16802
:101BC00041F40051C1606564202084F8410084F82C
:101BD00042006563002070BDF0B585B0002400941C
:101BE0000194029403940646374F03683749022252
:101BF0000320374DBB4226D18B6943F480438B6170
:101C00008B6903F4804304938B6943F004038B6175
:101C10008969039001F0040104911102CDE90012D9
:101C200069462846FEF738FF2815CDE900046946C5
:101C300028460294FEF730FF002211462520FFF7C8
:101C40008DF825203BE0234FBB423AD1CB6943F4CA
:101C50000033CB61CB6903F4003304938B6943F009
:101C600004038B618969039001F00401049104214C
:101C7000CDE9001269462846FEF70EFF0820CDE99F
:101C80000004694628460294FEF706FF134D1248E9
:101C9000C5E900048020C5E902402C616C61AC619B
:101CA0002846EC61FEF780FE08B1FEF761FDF563A2
:101CB0000022114626206E62FFF750F82620FFF71B
:101CC0003FF805B0F0BD00000038014000100240B0
:101CD00000080140004400406C00024060110020F8
:101CE00090F84230202B01D00220704721B11AB168
:101CF0000023036300F01EBE012070477047704749
:101D00002DE9F843044690F84100984616460D46E2
:101D1000202802D00220BDE8F88385B17EB10020E2
:101D20006064212084F84100FEF7ACFFA684814660
:101D3000E684A0682027B0F5805F02D003E0012090
:101D4000E9E7206910B12E4600250EE000260CE0E0
:101D50008021204600F036FEA8B9C6B116F8010B66
:101D600021684860E08C401EE084E08C4B464FF0D8
:101D70000002CDF800800028EAD14FF04001204653
:101D800000F020FE40B184F841700320C3E735F82D
:101D9000020BC0F30800E3E784F841700020BAE7C3
:101DA0007047FEE72DE9F04106461C4617460D46F2
:101DB0002A2000F0FBF9304600F0EDF9384600F03B
:101DC000EAF92B2000F0F2F91835A8B200F0E3F997
:101DD0001834A0B200F0DFF9BDE8F0412C2000F08B
:101DE000E5B910B514460B460246FFF7DBFF204667
:101DF000BDE8104000F0CFB92DE9F04780461F46FE
:101E0000581E83B21646501E82B20C464046DDF87C
:101E10002090FFF7C7FF0AE0454604E0484600F07F
:101E2000BAF96D1CADB2B542F8D3641CA4B2BC4281
:101E3000F2D3BDE8F087000000224FF4FC710148A6
:101E4000FEF71ABF000C014010B5FFF7F5FF7F4CFD
:101E5000002240212046FEF70FFF6420FEF70AFE15
:101E6000012240212046FEF707FF6420FEF702FE14
:101E7000012211022046FEF7FFFE6420FEF7FAFD64
:101E8000112000F093F97820FEF7F4FDB12000F066
:101E90008DF9052000F09EF93C2000F09BF93C20D4
:101EA00000F098F9B22000F081F9052000F092F9D5
:101EB0003C2000F08FF93C2000F08CF9B32000F0BA
:101EC00075F9052000F086F93C2000F083F93C20EC
:101ED00000F080F9052000F07DF93C2000F07AF94F
:101EE0003C2000F077F9B42000F060F9032000F006
:101EF00071F9C02000F05AF90E2000F06BF90E20A5
:101F000000F068F9042000F065F9C12000F04EF9F6
:101F1000C52000F05FF9C22000F048F90D2000F064
:101F200059F9002000F056F9C32000F03FF98D2048
:101F300000F050F92A2000F04DF9C42000F036F9E5
:101F40008D2000F047F9EE2000F044F9C52000F0A4
:101F50002DF9062000F03EF9362000F027F9782010
:101F600000F038F93A2000F021F9552000F032F95C
:101F7000E02000F01BF90B2000F02CF9172000F0F6
:101F800029F90A2000F026F90D2000F023F91A2083
:101F900000F020F9192000F01DF9162000F01AF9C0
:101FA0001D2000F017F9212000F014F9262000F080
:101FB00011F9372000F00EF93C2000F00BF9002059
:101FC00000F008F9092000F005F9052000F002F9F9
:101FD000102000F0FFF8E12000F0E8F80C2000F0FD
:101FE000F9F8192000F0F6F8092000F0F3F80D20B8
:101FF00000F0F0F81B2000F0EDF8192000F0EAF8EE
:10200000152000F0E7F81D2000F0E4F8212000F092
:10201000E1F8262000F0DEF8392000F0DBF83E2061
:1020200000F0D8F8002000F0D5F8092000F0D2F830
:10203000052000F0CFF8102000F0CCF87820FEF753
:1020400019FDBDE81040292000F0B0B8000C014097
:102050002DE9FF4F81B00446DDF83C9000904FEA37
:1020600059074FF00008780700D0012000EBD70097
:1020700000FB09FB203AD0B2039002980299484431
:10208000401E83B2E019401E82B22046FFF78AFE4E
:10209000002553E0B9F10C0F2AD0B9F1100F2ED062
:1020A000B9F1180F2ED0B9F1200F49D12749039863
:1020B00001EB8010002610F805A0109800284FF0C2
:1020C000010000FA06F000EA0A0022D020B1204602
:1020D000049A0299FFF785FE641C0098A4B2201AA6
:1020E000B84225D10298009C401C80B2029023E0A7
:1020F0000398174900EB400001EB8000DAE715492F
:10210000039803E00398144900EB400001EB001032
:10211000D0E708B1049800E00E9800F03CF808F110
:102120000100C0B2B0FBF7F1804607FB118050B14F
:10213000761CF6B2082EC0D36D1CADB25D45A9D396
:1021400005B0BDE8F08F4FF00008F5E71E5100081C
:10215000EA3400085E3900084E3F00082DE9FE4FC2
:102160009946DDE90D6714468A460546DDF830805C
:102170000CE0CDF800804B4651462846CDE901677A
:10218000FFF766FF05EB560085B2641C2278002A33
:10219000EFD1BDE8FE8F10B50446000A00F01AF832
:1021A000E0B2BDE8104000F015B8000070B5084C72
:1021B0000546002210212046FEF75EFD284600F06D
:1021C00009F82046BDE8704001221021FEF754BDF9
:1021D000000C014070B5144E0546002280213046A7
:1021E000FEF74AFD0024002208213046FEF744FD98
:1021F000280601D5012200E0002220213046FEF70A
:102200003BFD012208213046FEF736FD6806641CBE
:10221000050EE4B2082CE6D33046BDE8704001223A
:102220008021FEF729BD0000000C0140094808B5D7
:10223000416941F0010141614069002200F0010063
:10224000009011461020FEF789FDBDE808401020DF
:10225000FEF776BD001002402DE9F04786B000245D
:102260002D480094019402940394816941F0100177
:102270008161816901F010010491816941F02001BF
:102280008161816901F020010491816941F00401BB
:102290008161816901F004010491816941F00801C3
:1022A00081618069DFF8748000F008004FF4005508
:1022B0000490002229464046FEF7DEFCDFF86090DD
:1022C000012202214846FEF7D7FCDFF858A041F270
:1022D000F807002239465046FEF7CEFC0126CDE92C
:1022E0000056022569464046CDE90245FEF7D4FB7B
:1022F000CDE9005669464846CDE90245FEF7CCFBDC
:10230000CDE9007669465046CDE90245FEF7C4FBAB
:1023100006B0BDE8F0870000001002400010014048
:1023200000080140000C0140104810B50E49016042
:102330004FF48271416000218160C1604FF40072EE
:102340000161C0E905121022C0E9072141628162E2
:102350000A21C162FEF7A0FF002803D0BDE81040AB
:10236000FEF706BA10BD000000380040140000203F
:102370000C4810B50A4901604FF4E1314160002179
:1023800081600C22C160C0E904128161C161FFF764
:10239000F1FB002803D0BDE81040FEF7E9B910BDFD
:1023A00000380140D01000200C4810B50A490160E7
:1023B0004FF4E1314160002181600C22C160C0E92D
:1023C00004128161C161FFF7D5FB08B1FEF7D0F9B6
:1023D000BDE8104000F0E2B80044004018110020B1
:1023E000FEE700887047FEE77047F8B5044640688E
:1023F0004FF48273984217D1A0684FF48065B0F50E
:10240000004F01D0A8420FD12068066826F0400690
:1024100006606068984207D1A068A84204D1009283
:102420000B460022012103E000920B46002280218E
:10243000204600F023F8002804D0606D40F0200012
:1024400060650320F8BDF8B515460E460B460092B0
:1024500004460122022100F011F840B9334600225F
:1024600080212046009500F009F8002804D0606D16
:1024700040F0200060650320F8BD00002DE9F8431E
:102480001E46914688460446089DFEF7FBFB401B0E
:10249000351AFEF7F7FB074625480068C0F3CB3036
:1024A000684338E0701C37D0FEF7ECFBC01BA84235
:1024B00003D215B1009860B32CE02068416821F088
:1024C000E00141606068B0F5827F0BD1A068B0F593
:1024D000004F02D0B0F5806F04D12068016821F070
:1024E00040010160A06AB0F5005F09D12068016871
:1024F00021F4005101602068016841F4005101603D
:10250000012084F85100002084F850000320BDE829
:10251000F8830025401E00902068816838EA010099
:1025200004D000214945BDD10020F0E70121F9E7A1
:10253000100000207047FEF7ABBB30B58FB02821EC
:102540006846FDF708FE14210AA8FDF704FE0121E4
:102550000804CDE900100024029402250491CDE97D
:1025600007504FF4E01009906846FEF705FD08B1EA
:1025700072B6FEE70F20CDE90A054FF48060CDE981
:102580000C4002210AA80E94FEF71AFC002801D084
:1025900072B6FEE70FB030BD704700000649A1F1EA
:1025A000080000F150028165C0E917120022428044
:1025B000A0F58050086070477410002010B5406A84
:1025C0000021C185C184FFF79DF910BD70B5446A33
:1025D0002068406994F84110C0F3C01000252129FB
:1025E00004D118B1E584204600F08EF820684069D7
:1025F00094F84210C0F38010222904D118B1E58567
:10260000204600F05AF8606C40F0100060642046EC
:10261000FFF778F970BD10B50146406A096809688E
:102620004FF0000289062ED4C28501680C3151E8B2
:10263000003F23F4807341E80034002CF5D1016899
:10264000143151E8003F23F0010341E80034002C2D
:10265000F5D10168143151E8003F23F0400341E80F
:102660000034002CF5D1202180F84210016B0129A3
:1026700009D101680C3151E8003F23F0100341E813
:102680000034002CF5D14263016B012902D0FFF721
:1026900035FB10BD818DFFF7FCF810BD10B5406A09
:1026A00001214163016B012902D0FFF728FB10BD16
:1026B000818D4908FFF7EDF810BD01680C3151E834
:1026C000002F22F4907241E80023002BF5D101681D
:1026D000143151E8002F22F0010241E80023002BC1
:1026E000F5D1016B012909D101680C3151E8002FA6
:1026F00022F0100241E80023002BF5D1202180F8C0
:10270000421000210163704701680C3151E8002F2D
:1027100022F0C00241E80023002BF5D1202180F8EF
:102720004110704738B5044600680168C943C906BE
:102730003BD401680025406800902046FFF7AAF8C6
:10274000E06B00684168194A2068126890422CD1F9
:102750001648C1F58071AC384288114489B2144AD8
:1027600041801144826D5160816D08318165026E36
:10277000914202D100F10801816541880D4AC1F5FD
:102780000063FF2B03DD1144826D116002E0816D57
:102790000A60458001210170806D4FF480720168EC
:1027A000BDE838400148FFF79BBA38BD181100203A
:1027B0006B0000206C00002008B590F84210222920
:1027C00001D0022008BD82684FF480539A4201D1A3
:1027D000016921B1816A9A421BD04AB10AE00268BC
:1027E000816A5268C2F308020A80816A891C08E083
:1027F000026972B10268526802F07F020A70816A4F
:10280000491C8162C18D491E0904090CC18503D090
:102810001BE002685268F1E70168CA6822F02002F2
:10282000CA600168CA6822F48072CA6001684A6995
:1028300022F001024A61202180F842100021416308
:10284000026B012A03D0FFF759FA002008BD01638B
:1028500001680C3151E8002F22F0100241E80023FA
:10286000002BF5D101680A68D20602D50A684968CA
:102870000091818DFFF70DF8E7E7000070B5044681
:1028800000680169E26821F4405111430161216946
:10289000A0680843616908432168CA6841F20C6373
:1028A0009A430243CA6020684169A26921F44071D9
:1028B000114341611E492068884202D1FEF726FB80
:1028C00001E0FEF713FB00EBC00101EB00126068B2
:1028D00064218000B2FBF0F3B3FBF1F36FF0180654
:1028E0007343B2FBF0F5B2FBF0F605EB8305322340
:1028F00003EB0515B5FBF1F5B6FBF1F605F0F005B8
:1029000005EB0615B2FBF0F6B2FBF0F0B0FBF1F010
:102910006FF01802504306EB800003EB0010B0FB91
:10292000F1F0216800F00F002844886070BD0000BD
:102930000038014038B58162044682850020134684
:102940006064222284F84220E56B1B4AAA62E56B90
:102950001A4AEA62E56B1A4A2A63E26B50630A4636
:102960002168E06B091DFEF74DF82068016840689A
:102970000090206948B120680C3050E8001F41F4F5
:10298000807140E80012002AF5D12068143050E828
:10299000001F41F0010140E80012002AF5D1206833
:1029A000143050E8001F41F0400140E80012002AB6
:1029B000F5D1002038BD0000172600089D2600082C
:1029C000CD2500082DE9F843984617460D460446E4
:1029D000089E24E0701C22D0FEF754F9A0EB0800FA
:1029E000B0421AD8CEB12068C168490717D5802DEA
:1029F00015D0402D13D00168C94309070FD40168D1
:102A00000025406800902046FFF757FE08206064CC
:102A100084F840500120BDE8F8830320FBE72068DC
:102A2000006835EA000004D00020B842D2D000206F
:102A3000F1E70120F9E700000148FEF765BF00005B
:102A4000D010002010B50448FFF76CFEBDE8104020
:102A50000148FEF759BF000018110020FEE70000F2
:102A600037B514460846064B6A46214600F0ECF896
:102A700004466946002000F06AFC20463EBD000086
:102A80004F3300080907090E002804DB00F1E0209D
:102A900080F80014704700F00F0000F1E02080F88B
:102AA000141D704702E008C8121F08C1002AFAD19D
:102AB00070477047002001E001C1121F002AFBD1BE
:102AC000704700002DE9FF5F82B00021DDE904308E
:102AD000020DDDF840B0034318D044F61050A2F2C6
:102AE000FF3242431514119801281FD0A5EB0B00AB
:102AF000401C5FEA000A4FF000064E4FDFF83891A5
:102B0000B046504615D5CAF1000413E011980124CF
:102B10004AA3012801D16FEA0B010298119AC0E97A
:102B20000031C0E9024206B0BDE8F09FCBF10000E1
:102B3000DFE704460021404A491842EB0450CDE942
:102B4000001012E0E00707D032463B4640464946B7
:102B5000FDF701FC8046894632463B461046194641
:102B6000FDF7F9FB06460F466410002CEAD1DDE9BB
:102B70000401DDE90023BAF1000F06DAFDF7EBFBF3
:102B800042464B46FDF7E7FB05E0FDF756FC4246A3
:102B90004B46FDF752FC04460E460022284BFDF73B
:102BA000D3FC03D84FF0FF30014607E00022254B4D
:102BB00020463146FDF728FBFDF7AEFC102409E066
:102BC000002C0ADB0A220023FDF7EDFA039B3032CA
:102BD0001A55641E50EA0102F2D1641C039AC4F132
:102BE00011031444119A012A03D0012208430DD184
:102BF0000AE0084304D000204FF0110B119072E757
:102C0000A3EB0B056D1E0DE05B4504DD4FF00002EC
:102C100005F1010504E003DA4FF00002A5F101051A
:102C2000002AECD002981199C0E90231C0E90045B0
:102C300079E70000000014400000F03F3000000081
:102C40000000F0430000E03F2DE9FF4F95B09A46A9
:102C5000884606460025EEE1252877D10024274640
:102C6000F94A0121039400E0044316F8013F203B98
:102C700001FA03F01042F7D130782A2811D06FF012
:102C80002F033078A0F13002092A16D8039A44F0B5
:102C9000020402EB820203EB42021044761C039012
:102CA000EFE758F8042B0392002A03DA504244F469
:102CB0000054039044F00204761C30782E2816D17C
:102CC00016F8010F44F004042A280DD06FF02F02EB
:102CD0003078A0F13003092B09D807EB870302EB0A
:102CE0004303C718761CF3E758F8047B761C30784A
:102CF0006C280FD006DC4C2817D068280DD06A2825
:102D000014D104E0742810D07A280FD10DE044F4D7
:102D100000140AE044F4801401E044F44014727892
:102D2000824202D104F58014761C761C3078662825
:102D30000BD013DC582877D009DC002875D0452843
:102D4000F6D04628F4D047281AD193E118E063283A
:102D500035D0642879D0652812D18BE1702873D0E2
:102D600008DC6728F1D069286FD06E280DD06F2855
:102D700006D1ACE073282CD0752874D0782853D0B5
:102D80005246179990476D1C54E1C4F30250022833
:102D900009D003280DD0D8F8001004280DD00D60FC
:102DA00008F1040846E1D8F80010EA17C1E900521A
:102DB000F6E7D8F800100D80F2E70D70F0E718F88C
:102DC000041B8DF8001000208DF80100EB46012057
:102DD00003E058F804BB4FF0FF3061074FF00001EB
:102DE00002D40DE009F101018946B9420FDA8145AB
:102DF000F8DB1BF809100029F4D108E009F1010102
:102E000089468142FADB1BF809100029F6D10398A4
:102E10005346A0EB090721463846179A00F080FA7E
:102E2000284400EB090507E044E008E10DE01BF849
:102E3000010B524617999047B9F10109F7D2534651
:102E400021463846179AF2E039E00A21C4F30252CB
:102E50004FF0000B0091022A06D058F8040BC1175E
:102E6000032A09D00AE023E008F1070020F0070256
:102E7000F2E80201904605E000B2C117042A01D130
:102E800040B2C117002906DA0A460021404261EB30
:102E900002012D2202E0220504D52B228DF8042008
:102EA000012203E0E20701D02022F7E7914657E034
:102EB0000A2100E010214FF0000B00910BE01021DF
:102EC0004FF0000B44F004040827009103E00820B1
:102ED0004FF0000B0090C4F30252022A05D058F8BC
:102EE000040B0021032A08D008E008F1070020F0B5
:102EF0000702F2E80201904603E080B2042A00D102
:102F0000C0B24FF0000922072AD53278702A07D0C4
:102F1000DDF800C08CF0100C5CEA0B0C05D00EE064
:102F200040228DF80420012208E050EA010306D077
:102F300030238DF804308DF8052002229146009B45
:102F400083F0080353EA0B030AD150EA010201D1CE
:102F5000620705D530228DF804204FF001097F1E4D
:102F60003278582A04D039A20C920CAA02920BE0B3
:102F70003BA2F9E75B46009AFDF715F90C9B9B5CB9
:102F8000029A521E0292137050EA0102F2D1029884
:102F900004A9081A00F1200B600702D524F480343C
:102FA00000E001275F4502DDA7EB0B0000E00020F9
:102FB00000EB0B01009003984944401A0390E00392
:102FC00006D453462146179A039800F0A9F9054400
:102FD000002706E001A85246C05D179990476D1C76
:102FE0007F1C4F45F6DBE0030CD553462146179A6C
:102FF000039800F095F9054404E0302052461799F3
:1030000090476D1C0099481E00900029F5DC08E0EF
:103010000298029952460078491C029117999047EC
:103020006D1CBBF10001ABF1010BF1DC5BE100F0C9
:1030300065F90544761C307800287FF40DAE19B090
:103040002846BDE8F08F00000928010030313233F6
:1030500034353637383961626364656600000000D4
:1030600030313233343536373839414243444546BE
:1030700000000000600700D4062708F1070020F0D8
:103080000700F0E80223804603F0004C5FEA0C00E2
:1030900001D097A009E0200501D596A005E0E00742
:1030A00001D095A001E0AFF24C001390307823F0EE
:1030B000004365280CD006DC452809D046281DD0E1
:1030C00047287FD13BE0662818D067287AD136E0C0
:1030D0000021112F01DB112000E0781CCDE9000157
:1030E00004A90CA8FFF7EEFCDDE90D010C9A4FF0E6
:1030F000000B07F10109109200914EE04FF00040E3
:103100000097CDE9011004A90CA8FFF7DBFCDDE96D
:103110000D020C9B0F994FF0000B914610930092FB
:1031200011B9791C00EB0109B7EB090003D4C0F118
:10313000FF3B07F10109A9EB0700019042E0012FD5
:1031400000DA01270021112F01DD112000E03846AF
:10315000CDE9000104A90CA8FFF7B4FCDDE90D01DD
:103160000C9A00914FF0000BB946109221070FD432
:10317000009A4A4503DA914601E0A9F10109B9F143
:10318000010F05DD109AA9F10101515C3029F4D03D
:10319000B84202DA10F1040F03DA0121CDE901107F
:1031A00010E0002803DC8344A9EB000102E0411C8D
:1031B000494500DD8946A0EB0B00401C01904FF013
:1031C00000400290200705D40198484502DB4FF0EB
:1031D000FF30019000208DF84B0002980DF14B0755
:1031E000B0F1004F25D002200C902B200D900298BA
:1031F00000280CDA404202902D200D9007E00A21B1
:103200000298FCF7BAFF3031029007F8011D0C99C3
:10321000481E0C900029F2DC02980028EFD1791E9C
:103220000D980870307800F0200040F0450007F855
:10323000020D11A8C01BC01D02901398007800B1A8
:10324000012000EB0901019801EBE07102980144B3
:103250000398401A401E0390E00306D453462146CB
:10326000179A039800F05CF805441398007818B199
:103270005246179990476D1CE00323D553462146CB
:10328000179A039800F04CF805441BE0BBF1000FBF
:1032900007DB0098584504DD1098179910F80B00CB
:1032A00001E0179930205246904701980BF1010B2D
:1032B000401E05F10105019004D12E2052461799B8
:1032C00090476D1CB9F10001A9F10109DEDC05E0B0
:1032D00017F8010B5246179990476D1C0299481E2A
:1032E00002900029F4DC53462146179A03989EE683
:1032F0002D0000002B000000200000002DE9F0410F
:10330000044600251E461746880404D405E03946C5
:103310002020B0476D1C641EF9D52846BDE8F08119
:103320002DE9F041044600251E469046C80301D50C
:10333000302700E02027880404D505E041463846C0
:10334000B0476D1C641EF9D52846BDE8F0810A68B7
:10335000531C0B601070704705480068A0F5905131
:10336000343903D003A000BF00F07AB807A0FBE710
:1033700000000020CCF8D7AACFB5CDB3B7D6C7F898
:10338000A3A841C7F8A3A90D0A0000004F5441B8F3
:10339000FCD0C20D0A0000000EB5FDF781FCFFF75E
:1033A000CCF8FEF759FFFEF741FFFEF7E1FFFEF70D
:1033B000FBFFFEF7B9FF1F480068C16841F010012C
:1033C000C1601D484FF48072806D01681948FEF796
:1033D00087FCFDF78DF9FEF737FD4FF6FF740021EE
:1033E0005023A02208460094FEF706FD1026002573
:1033F000CDE900464FF478473B4610A229462820E5
:103400000295FEF7ABFECDE900463B460EA2102129
:1034100028200295FEF7A2FE012251030D48FDF778
:103420002BFC0D48FEF7DDFF0C490860FFF794FF09
:10343000FEE70000181100206C10002053544D339B
:1034400032204F544100000056657273696F6E3A26
:10345000302E30000010014002FC00080000002067
:103460000FB414482DE9F04107AA80460699FFF7EA
:10347000F7FA0024104D114E671E0DE00168C94394
:103480000906FBD431193B4601220B4801F50061C6
:10349000FEF736FC641CA4B24046FCF767FEA0426F
:1034A0002868EBD80168C9430906FBD4BDE8F001E0
:1034B0005DF814FB6C080020181100206C0000203F
:1034C000010202030405060708090A0B0C0D0E0F82
:1034D00010100000000000000000010203040607B5
:1034E00008090000000001020304000000000000C1
:1034F00000000000000000000404040404000004B4
:10350000000014140A000000000000000000000089
:103510000A0A1F0A0A1F0A0A000000040E150506FF
:103520000C14150E0400000012150D152E2C2A1275
:1035300000000000040A0A361515291600000202D0
:10354000010000000000000000001008080404044E
:103550000404080810000204040808080808040409
:10356000020000000004150E0E150400000000000B
:103570000008083E080800000000000000000000ED
:1035800000000202010000000000003F00000000F7
:103590000000000000000000000000020000002009
:1035A0001010080804040202010000000E1111119D
:1035B0001111110E00000000040604040404040E9E
:1035C000000000000E1111080402011F000000009D
:1035D0000E11100C1010110E00000000080C0C0A47
:1035E000091F081C000000001F01010F1110110E1F
:1035F000000000000C12010D1311110E000000005C
:103600001E10080804040404000000000E11110E2E
:103610001111110E000000000E11111916100906EB
:103620000000000000000400000000040000000092
:103630000000000400000004040000001008040260
:10364000020408100000000000003F003F000000DE
:10365000000000000204081010080402000000002E
:103660000E11110804040004000000001C22292D82
:103670002D1D221C0000000004040C0A0A1E123337
:10368000000000000F12120E1212120F00000000B4
:103690001E1101010101110E000000000F12121293
:1036A0001212120F000000001F120A0E0A02121F4F
:1036B000000000001F120A0E0A02020700000000AC
:1036C0001C1201013911120C000000003312121EED
:1036D00012121233000000001F0404040404041F2B
:1036E000000000003E080808080808080907000054
:1036F00037120A060A1212370000000007020202FF
:103700000202223F000000003B1B1B1B1515153554
:10371000000000003B1216161A1A121700000000D3
:103720000E1111111111110E000000000F12120ED6
:1037300002020207000000000E1111111117190EEC
:10374000180000000F12120E0A12123700000000BB
:103750001E1101060810110F000000001F150404BF
:103760000404040E00000000331212121212120C94
:10377000000000003312120A0A0C040400000000CA
:10378000151515150E0A0A0A000000001B0A0A0486
:10379000040A0A1B000000001B0A0A0A0404040EA3
:1037A000000000001F0908040402121F00001C048E
:1037B00004040404040404041C00000202040404BD
:1037C0000808081010000E0808080808080808086B
:1037D0000E00040A000000000000000000000000CD
:1037E0000000000000000000003F02040000000094
:1037F00000000000000000000000000C121C123C41
:10380000000000030202020E1212120E000000005D
:103810000000001C1202120C000000181010101CF6
:103820001212123C000000000000000C121E021CCC
:10383000000000182404041E0404041E00000000FC
:103840000000003C120C021C221C00030202020EAB
:103850001212123700000004040000060404040ED3
:10386000000000080800000C08080808080700030A
:103870000202021A0A060A130000000704040404E4
:103880000404041F000000000000000F15151515AA
:10389000000000000000000F1212123700000000AC
:1038A0000000000C1212120C000000000000000FBB
:1038B0001212120E020700000000001C1212121C4D
:1038C000103800000000001B060202070000000084
:1038D0000000001E020C101E000000000004041E68
:1038E0000404041C000000000000001B1212123C23
:1038F000000000000000001B0A0A04040000000091
:1039000000000015150E0A0A000000000000001B50
:103910000A040A1B000000000000003312120C0809
:10392000040300000000001E0804041E0000180824
:103930000808080C080808081800080808080808FB
:103940000808080808080604040404080404040419
:103950000600160900000000000000000000000042
:103960000000000000000000000000000000000057
:103970000008080808080808000018180000004897
:103980006C24120000000000000000000000000095
:10399000002424247F1212127F1212120000000051
:1039A000081C2A2A0A0C1828282A2A1C08080000A1
:1039B0000022251515152A585454542200000000E1
:1039C000000C1212120A76252911916E00000006D1
:1039D000060403000000000000000000000000409A
:1039E00020101008080808080810102040000002E5
:1039F000040808101010101010080804020000003D
:103A0000000008086B1C1C6B080800000000000088
:103A10000000080808087F080808080000000000E7
:103A20000000000000000000000006060403000083
:103A3000000000000000FE00000000000000000088
:103A4000000000000000000000000606000000006A
:103A500080404020201010080804040202000000EA
:103A60000018244242424242424224180000000010
:103A700000080E08080808080808083E00000000B2
:103A8000003C4242422020100804427E0000000018
:103A9000003C4242201820404042221C000000000E
:103AA00000203028242422227E20207800000000DC
:103AB000007E0202021A26404042221C0000000042
:103AC00000382402021A2642424224180000000054
:103AD000007E2222101008080808080800000000D4
:103AE000003C4242422418244242423C0000000072
:103AF00000182442424264584040241C0000000048
:103B00000000000018180000000018180000000055
:103B10000000000000080000000000080804000089
:103B2000004020100804020408102040000000009B
:103B3000000000007F0000007F0000000000000087
:103B400000020408102040201008040200000000B9
:103B5000003C4242464020101000181800000000AF
:103B6000001C225A555555552D42221C00000000BC
:103B7000000808181414243C224242E70000000008
:103B8000001F2222221E22424242221F0000000069
:103B9000007C4242010101010142221C00000000A0
:103BA000001F2242424242424242221F00000000C5
:103BB000003F4212121E12120242423F0000000059
:103BC000003F4212121E1212020202070000000001
:103BD000003C2222010101712122221C0000000070
:103BE00000E7424242427E42424242E70000000079
:103BF000003E0808080808080808083E0000000001
:103C0000007C10101010101010101010110F000078
:103C1000007722120A0E0A121222227700000000F8
:103C200000070202020202020202427F00000000BC
:103C30000077363636362A2A2A2A2A6B00000000F8
:103C400000E346464A4A5252526262470000000070
:103C5000001C2241414141414141221C0000000021
:103C6000003F424242423E020202020700000000C0
:103C7000001C2241414141414D53321C6000000073
:103C8000003F4242423E1212222242C70000000080
:103C9000007C4242020418204042423E00000000E4
:103CA000007F4908080808080808081C00000000F0
:103CB00000E74242424242424242423C000000008F
:103CC00000E74242222424141418080800000000CF
:103CD000006B49494949555536222222000000000F
:103CE00000E7422424181818242442E700000000AA
:103CF00000772222141408080808081C000000009D
:103D0000007E2120101008040442423F0000007889
:103D100008080808080808080808080878000000CB
:103D20000202040408080810102020204040001E51
:103D30001010101010101010101010101E0000386D
:103D4000440000000000000000000000000000002F
:103D500000000000000000000000000000FF00065E
:103D6000080000000000000000000000000000004B
:103D700000000000003C4278444242FC0000000089
:103D800000030202021A26424242261A00000000E4
:103D90000000000000384402020244380000000025
:103DA0000060404040784442424264D80000000035
:103DB00000000000003C427E0202423C0000000085
:103DC00000F08808087E08080808083E0000000087
:103DD00000000000007C22221C023C42423C000009
:103DE00000030202023A4642424242E7000000005B
:103DF000000C0C00000E08080808083E0000000037
:103E0000003030000038202020202020221E00001A
:103E1000000302020272120A16122277000000004A
:103E2000000E0808080808080808083E00000000FE
:103E300000000000007F9292929292B70000000072
:103E400000000000003B4642424242E70000000002
:103E500000000000003C42424242423C00000000A0
:103E600000000000001B26424242221E0207000002
:103E700000000000007844424242447840E00000E4
:103E80000000000000774C040404041F0000000040
:103E900000000000007C42023C40423E0000000066
:103EA00000000008083E080808080830000000006C
:103EB0000000000000634242424262DC0000000059
:103EC0000000000000E7422424140808000000005D
:103ED0000000000000EB4949555522220000000077
:103EE00000000000007624181818246E000000005E
:103EF0000000000000E7422424141808080700000E
:103F000000000000007E22100808447E000000C06F
:103F1000202020202010202020202020C000101051
:103F200010101010101010101010101010100006AB
:103F300008080808081008080808080806000C32D5
:103F4000C2000000000000000000000000000000AF
:103F50000000000000000000000000000000000061
:103F60000000000000000000000000000000000051
:103F70000000000000000000000000000000000041
:103F80000000000000006000600060006000600051
:103F900060006000400020002000200000000000C1
:103FA00000006000600060000000000000000000F1
:103FB000000060066006300398018800440000009D
:103FC00000000000000000000000000000000000F1
:103FD00000000000000000000000000000000000E1
:103FE0000000000000001002100210021002FE0784
:103FF000FE0708020801080108010801FE07FE0784
:10400000040104010401040100000000000000009C
:104010000000000040004000F00158034C03CC03B6
:104020004C0058007000E000C001C00140034C0388
:104030005C034C034801F000400040000000000019
:104040000000000000000E010A01910091009100A3
:10405000510051003A00AE03A0025004500448043D
:1040600048044804840284030000000000000000AB
:1040700000000000000038006C006C006C006C0058
:104080006C002C0098071C011A01330133016301F5
:10409000E300C308C6093C07000000000000000060
:1040A00000000C001C0010001000080004000000BC
:1040B0000000000000000000000000000000000000
:1040C00000000000000000000000000000000000F0
:1040D0000000000400020001800080004000400059
:1040E00020002000200020002000200020004000B0
:1040F0004000800080000001000200040000000079
:104100000000020004000800100010002000200041
:1041100040004000400040004000400040002000BF
:104120002000100010000800040002000000000041
:10413000000000000000000000004000C00040003F
:10414000460C4E0FD001F0015E0F460C40004000BF
:10415000400000000000000000000000000000001F
:1041600000000000000000000000000040004000CF
:10417000400040004000FE0F400040004000400072
:1041800040000000000000000000000000000000EF
:10419000000000000000000000000000000000001F
:1041A000000000000000000000000000000000000F
:1041B00000000C001C0010001000080004000000AB
:1041C00000000000000000000000000000000000EF
:1041D000000000000000FE070000000000000000DA
:1041E00000000000000000000000000000000000CF
:1041F00000000000000000000000000000000000BF
:1042000000000000000000000000000000000000AE
:1042100000001C001C001C0000000000000000004A
:1042200000000004000600020003000100018000FD
:1042300080004000400060002000200010001000BE
:10424000080008000C000400060002000000000046
:104250000000000000000000F00098010C030C03B7
:1042600006060606060606060606060606060606EE
:104270000C030C039801F000000000000000000097
:10428000000000000000000040007C0060006000B2
:10429000600060006000600060006000600060001E
:1042A000600060006000FC030000000000000000EF
:1042B0000000000000000000F80084010203060373
:1042C0000603000300018001C00060002000100010
:1042D000080204020602FE030000000000000000C5
:1042E00000000000000000007800C6008601860182
:1042F00080018001C0007000800100010003000304
:10430000060306038601F80000000000000000001C
:10431000000000000000000080018001C001A00139
:10432000A00190018801880184018201FE0F8001B3
:10433000800180018001E007000000000000000013
:104340000000000000000000FC0304000400040062
:1043500004000400F4008C010403000300030603BE
:10436000060382018401F800000000000000000044
:104370000000000000000000E00118030C030C0026
:1043800004000600E60116030E06060606060606EB
:1043900004060C021803F0000000000000000000FA
:1043A0000000000000000000F8070C0604020401F1
:1043B00000010001800080004000400040006000DB
:1043C000600060006000600000000000000000006D
:1043D0000000000000000000F8010C0306060606BD
:1043E00006060C021C03F000C8010C0306060606B4
:1043F000060606060C03F0010000000000000000A5
:104400000000000000000000F0000C010C03060298
:1044100006060606060606078C0678060006000352
:1044200000030C018C017800000000000000000077
:10443000000000000000000000000000000000007C
:104440000000E000E000E0000000000000000000CC
:104450000000E000E000E0000000000000000000BC
:10446000000000000000000000000000000000004C
:10447000000060006000000000000000000000007C
:1044800000000000600060004000200020000000EC
:104490000000000000000004000200018000400055
:1044A0002000100008000400080010002000400058
:1044B0008000000100020004000000000000000075
:1044C00000000000000000000000000000000000EC
:1044D0000000FE07000000000000FE0700000000D2
:1044E00000000000000000000000000000000000CC
:1044F0000000000000000400080010002000400040
:104500008000000100020004000200018000400061
:10451000200010000800040000000000000000005F
:104520000000000000000000E0031806040C040C6A
:104530000C0C0C0C00078001400040004000000003
:104540000000E000E000E0000000000000000000CB
:10455000000000000000E00018030C02CC05640518
:104560006605A605B604B604B604B604B602E401B0
:104570000C040C021803F000000000000000000012
:104580000000000000000000600060005000D0004B
:1045900090009000880088010801F80104030403DA
:1045A0000402020202060F0F0000000000000000DB
:1045B0000000000000000000FE008C030C030C0350
:1045C0000C030C038C01FC000C030C020C060C0603
:1045D0000C060C060C03FE010000000000000000A9
:1045E0000000000000000000E00318030C060C04AB
:1045F0000404060006000600060006000600060485
:104600000C040C021803F000000000000000000081
:1046100000000000000000007F008C010C030C0370
:104620000C060C060C060C060C060C060C060C06FA
:104630000C030C038C017F00000000000000000050
:104640000000000000000000FF030603060406044B
:10465000060086008600FE008600860086000600B2
:10466000060406040602FF0300000000000000002C
:104670000000000000000000FF030603060406041B
:10468000060086008600FE00860086008600060082
:104690000600060006001F000000000000000000E9
:1046A0000000000000000000F00018010C020C02E5
:1046B00004020600060006000600C60F06030603F5
:1046C0000C030C031803F0000000000000000000C1
:1046D00000000000000000000F0F06060606060698
:1046E000060606060606FE07060606060606060671
:1046F0000606060606060F0F000000000000000078
:104700000000000000000000FC036000600060008A
:104710006000600060006000600060006000600099
:10472000600060006000FC0300000000000000006A
:104730000000000000000000F807C000C000C0003A
:10474000C000C000C000C000C000C000C000C00069
:10475000C000C000C000C000C60066003C000000F1
:104760000000000000000000CF038601C6004600E4
:104770002600160036002E006E004600C600860099
:104780008601060106038F070000000000000000FC
:1047900000000000000000001F00060006000600E8
:1047A00006000600060006000600060006000600D9
:1047B000060406040602FF030000000000000000DB
:1047C00000000000000000000707860386038E0338
:1047D0008E034E034E034A035A035A033A0332032D
:1047E00032033203120387070000000000000000BC
:1047F00000000000000000008E0F0C021C021C02D2
:1048000034023402640264024402C4028402840357
:104810008403040304031F020000000000000000E2
:104820000000000000000000F00098010C030C02E2
:104830000606060606060606060606060606060618
:104840000C020C039801F0000000000000000000C2
:104850000000000000000000FF0006030606060638
:104860000606060606068603FE000600060006008B
:104870000600060006001F00000000000000000007
:104880000000000000000000F00098010C030C0282
:104890000606060606060606060606060606760648
:1048A0004C02CC039801F0008007000300000000D8
:1048B0000000000000000000FF01060306060606D7
:1048C000060606060603FE004600C60086008601B0
:1048D0000603060306060F0E00000000000000009D
:1048E0000000000000000000F8020C0306020602AF
:1048F00006000E003C00F800E003800300070206FB
:10490000020606060C03F001000000000000000093
:104910000000000000000000FE076204610861085A
:104920006000600060006000600060006000600087
:10493000600060006000F80100000000000000005E
:1049400000000000000000001E070C020C020C0218
:104950000C020C020C020C020C020C020C020C02E7
:104960000C020C021801F000000000000000000022
:1049700000000000000000000F070602040104010F
:104980000C010C018800880098009800500050002D
:104990007000300020002000000000000000000037
:1049A0000000000000000000F70E6204420446040C
:1049B000460464026402E402E4029C029C01980141
:1049C00098018801880088000000000000000000B5
:1049D00000000000000000009E070C010801180103
:1049E0009000B0006000200060006000D0009000E7
:1049F0008801080104038E07000000000000000089
:104A000000000000000000000F0F060404020C026A
:104A100008011801B800B00070006000600060007C
:104A2000600060006000F80100000000000000006D
:104A30000000000000000000FC070C020603020159
:104A4000800180004000400020002000100018007D
:104A500008040C040402FE03000000000000000033
:104A60000000E003200020002000200020002000A3
:104A70002000200020002000200020002000200036
:104A800020002000200020002000E00300000000A3
:104A900000000000000004000400080008001000EE
:104AA000100010002000200040004000C0008000E6
:104AB000800000010001000200020002000400006A
:104AC00000007C00400040004000400040004000EA
:104AD00040004000400040004000400040004000D6
:104AE000400040004000400040007C00000000000A
:104AF00060009000080100000000000000000000BD
:104B000000000000000000000000000000000000A5
:104B10000000000000000000000000000000000095
:104B20000000000000000000000000000000000085
:104B30000000000000000000000000000000000075
:104B4000000000000000000000000000FF0F000057
:104B500000001800600000000000000000000000DD
:104B60000000000000000000000000000000000045
:104B70000000000000000000000000000000000035
:104B80000000000000000000000000000000000025
:104B90000000F0010C030C030003E0031C030E03F0
:104BA000060306038E0B7C0E0000000000000000D0
:104BB00000000000000008000E000C000C000C00BB
:104BC0000C00CC013C031C060C060C060C060C0663
:104BD0000C060C021C03E4010000000000000000B1
:104BE00000000000000000000000000000000000C5
:104BF0000000F0008C018C01860106000600060012
:104C000006020C020C01F000000000000000000091
:104C10000000000000000002C003000300030003C6
:104C2000000378038C030C03060306030603060344
:104C3000060304038C077801000000000000000058
:104C40000000000000000000000000000000000064
:104C50000000E001180308020C060C06FC070C001B
:104C60000C0018041802E001000000000000000021
:104C70000000000000000000C003600630063000A5
:104C80003000FE01300030003000300030003000D5
:104C9000300030003000FC01000000000000000087
:104CA0000000000000000000000000000000000004
:104CB0000000F007D8068C018C018C019801F800E7
:104CC0000C00FC00CC03060306038E03F800000072
:104CD00000000000000008000E000C000C000C009A
:104CE0000C00EC011C030C030C030C030C030C0361
:104CF0000C030C030C039E070000000000000000E2
:104D000000000000000000006000600000000000E3
:104D100040007C0060006000600060006000600097
:104D2000600060006000FC03000000000000000064
:104D30000000000000000000C001C00100000000F1
:104D40000001F0018001800180018001800180016B
:104D500080018001800180018001CC007C00000086
:104D600000000000000008000E000C000C000C0009
:104D70000C008C038C008C004C006C005C008C00E0
:104D80008C010C010C039E070000000000000000D5
:104D900000000000000040007C0060006000600037
:104DA0006000600060006000600060006000600003
:104DB000600060006000FC030000000000000000D4
:104DC00000000000000000000000000000000000E3
:104DD00000003707EE066606660666066606660685
:104DE000660666066606FF0F000000000000000071
:104DF00000000000000000000000000000000000B3
:104E00000000EE011C030C030C030C030C030C0349
:104E10000C030C030C039E070000000000000000C0
:104E20000000000000000000000000000000000082
:104E30000000F00098010C030606060606060606AA
:104E400006060C030C03F000000000000000000048
:104E50000000000000000000000000000000000052
:104E60000000EE011C030C060C060C060C060C06DA
:104E70000C060C031C03EC010C000C003E000000AF
:104E80000000000000000000000000000000000022
:104E9000000078028C030C030603060306030603D6
:104EA000060304038C03780300030003C00700001B
:104EB00000000000000000000000000000000000F2
:104EC00000009F0358063806180018001800180044
:104ED000180018001800FF0000000000000000008B
:104EE00000000000000000000000000000000000C2
:104EF0000000F0031C030C020C023800F000C00399
:104F0000040304038C03FC01000000000000000007
:104F10000000000000000000000020002000300021
:104F20003000FE0130003000300030003000300032
:104F3000300030023002E0010000000000000000FC
:104F40000000000000000000000000000000000061
:104F500008028E030C030C030C030C030C030C035C
:104F60000C030C039C077801000000000000000007
:104F70000000000000000000000000000000000031
:104F800000001E070C020801080118019000B00083
:104F9000B000600060002000000000000000000081
:104FA0000000000000000000000000000000000001
:104FB0000000F70E6204460464026402EC029C01E5
:104FC000980198019801080000000000000000000E
:104FD00000000000000000000000000000000000D1
:104FE0000000BC0718011001B00060006000E00084
:104FF0009000080108039E07000000000000000068
:1050000000000000000000000000000000000000A0
:1050100000009E0708010801080190009000B00000
:105020006000600060002000200024001C000000E0
:105030000000000000000000000000000000000070
:105040000000FC018401C400440060002000300026
:10505000180208020C03FC01000000000000000020
:10506000000000038000800080008000800080003D
:105070008000800040002000400080008000800010
:10508000800080008000800080000003000040005D
:105090004000400040004000400040004000400010
:1050A0004000400040004000400040004000400000
:1050B0004000400040004000400040004000000030
:1050C00000000C0010001000100010001000100074
:1050D0001000100020004000200010001000100000
:1050E000100010001000100010000C000000000064
:1050F0001C002204C2048003000000000000000025
:10510000000000000000000000000000000000009F
:10511000000000000000000000000000000000008F
:10512000000000000000000000000000000000007F
:10513000000000000000000000000000000000006F
:10514000000000000000000000000000000000005F
:10515000000000000000000000000000000000004F
:105160000000000000000000C001C001C001C0013B
:10517000C001C001C001800080008000800080006C
:105180008000800000000000000000008001C003DB
:10519000C0038001000000000000000000000000CB
:1051A00000000000E01CE01CF01E700E3807180321
:1051B0000801840000000000000000000000000062
:1051C00000000000000000000000000000000000DF
:1051D00000000000000000000000000000000000CF
:1051E000000000000000000000002010201020102F
:1051F00020102010FE7FFE7F1008100810081008F5
:10520000100810081008FE7FFE7F08040804080438
:105210000804080400000000000000000000000076
:1052200000000000000000010001C00760191031FB
:1052300018311839183938017001E001C0038007AE
:10524000000F001D003900311C311C310C310C11D4
:10525000180DE0070001000100010000000000003F
:10526000000000000000000000001C103618630859
:10527000630C63046304630263026301361D9C379D
:105280008022806340634063206320633063102288
:105290001836081C0000000000000000000000009C
:1052A00000000000000000000000F00098018C01E8
:1052B0008C018C018C018C00CC007800183E1C08FD
:1052C0003608320863046304C304C30383430643FC
:1052D0008E26781C00000000000000000000000086
:1052E000000000001C003C003C00300030001000BA
:1052F0000C0006000000000000000000000000009C
:10530000000000000000000000000000000000009D
:10531000000000000000000000000000000000008D
:10532000000000000040002000100008000C0004F5
:10533000000600030003000380018001800180015A
:10534000800180018001800100030003000300064A
:105350000006000C000800100020004000000000C3
:1053600000000000020004000800100030002000CF
:105370006000C000C000C000800180018001800189
:105380008001800180018001C000C000C000600079
:10539000600030001000080004000200000000005F
:1053A00000000000000000000000000000000001FC
:1053B0008003800300011C713C79783DC007000127
:1053C000C007783D3C791C71000180038003800197
:1053D00000000000000000000000000000000000CD
:1053E00000000000000000000000000000000000BD
:1053F0000001000100010001000100010001FC7F2B
:105400000001000100010001000100010001000095
:10541000000000000000000000000000000000008C
:10542000000000000000000000000000000000007C
:10543000000000000000000000000000000000006C
:1054400000000000000000000000000000001C0040
:105450003C003C003000300010000C000600000052
:10546000000000000000000000000000000000003C
:105470000000000000000000000000000000FE7FAF
:10548000000000000000000000000000000000001C
:10549000000000000000000000000000000000000C
:1054A00000000000000000000000000000000000FC
:1054B00000000000000000000000000000000000EC
:1054C00000000000000000000000000018003C0088
:1054D0003C00180000000000000000000000000078
:1054E00000000000004000600020003000100018A4
:1054F0000008000C00040006000200030001800107
:105500008000C00040006000200030001000180043
:1055100008000C000400060002000000000000006B
:1055200000000000000000000000C007600C301800
:105530001830183018200C600C600C600C600C6087
:105540000C600C600C600C6018201830183030189B
:10555000600CC00700000000000000000000000018
:105560000000000000000000000000018001F801C0
:105570008001800180018001800180018001800123
:105580008001800180018001800180018001800113
:10559000C003F81F00000000000000000000000031
:1055A00000000000000000000000E007101C0818C8
:1055B000043004300C300C300030001800080004B7
:1055C000000200018000400020201020082004304C
:1055D000FC1FFC1F00000000000000000000000095
:1055E00000000000000000000000E003180E0C0C9A
:1055F0000C180C180C180018000C0006C003000E44
:1056000000180010003000300C300C300C100C185A
:10561000180CE00300000000000000000000000083
:1056200000000000000000000000000C000E000E52
:10563000000F800E800E400E600E200E100E100E19
:10564000080E040E040EFE7F000E000E000E000E6B
:10565000000E000EC07F00000000000000000000EF
:1056600000000000000000000000F03FF03F1000CC
:105670001000100008000800C807280C18180810AF
:1056800000300030003000300C300C3004180418AA
:10569000080CF00300000000000000000000000003
:1056A00000000000000000000000800FC01020304B
:1056B00010301800180008000C008C0F6C183C30DB
:1056C0001C600C600C600C600C601860182030309E
:1056D0006018C0070000000000000000000000008B
:1056E00000000000000000000000F83FF83F1C1020
:1056F0000C08040804040004000200020001000178
:105700000001800080008000C000C000C000C00018
:10571000C000C00000000000000000000000000009
:1057200000000000000000000000E007300C181826
:105730000C300C300C301C3038187008E007B00703
:10574000180E0C1C063806300630063006300C18D1
:10575000180CE00300000000000000000000000042
:1057600000000000000000000000E00318040C0826
:105770000C180610063006300630063006380C3C91
:105780001836F03100300018001800180C0C0C0608
:105790000C03F00100000000000000000000000009
:1057A00000000000000000000000000000000000F9
:1057B00000000000000000008001C003C003800161
:1057C0000000000000000000000000008001C00395
:1057D000C003800100000000000000000000000085
:1057E00000000000000000000000000000000000B9
:1057F0000000000000000000C000C0000000000029
:105800000000000000000000000000000000000098
:10581000C000C00080008000400040000000000088
:10582000000000000000000000200010000800043C
:10583000000600038001C0006000300018000C006A
:10584000180030006000C000800100030006000462
:105850000008001000200000000000000000000010
:105860000000000000000000000000000000000038
:105870000000000000000000FE7F000000000000AB
:1058800000000000FE7F000000000000000000009B
:105890000000000000000000000000000000000008
:1058A00000000000000000000400080010002000BC
:1058B0006000C000800100030006000C00180030EA
:1058C0000018000C000600038001C00060002000EA
:1058D00010000800040000000000000000000000AC
:1058E0000000000000000000C00730180830086009
:1058F0000C601C601C601C600030001C0006000175
:105900008000800080008000000000008001C00353
:10591000C003800100000000000000000000000043
:1059200000000000000000000000C00760181030F8
:1059300018200C2F8C4D864CC64CC64C664C6644C9
:105940006644662666266615CC1C0C400820183076
:105950003018C00700000000000000000000000038
:1059600000000000000000000001C001C001C001F3
:1059700040016003200320032003300610061006B8
:105980001006F80F080C080C080C0C0C041804186E
:1059900006181F7C0000000000000000000000004E
:1059A00000000000000000000000FE07181C18386E
:1059B00018301830183018301818180CF807181844
:1059C00018301820186018601860186018601830B7
:1059D0001818FE0F0000000000000000000000008A
:1059E00000000000000000000000C02760381030F8
:1059F00018200C400C4004000600060006000600BB
:105A000006000600060006000C400C400C20183072
:105A10003018C00700000000000000000000000077
:105A200000000000000000000000FE03180E18181F
:105A30001830183018301860186018601860186036
:105A4000186018601860186018301830181018188E
:105A5000180EFE030000000000000000000000001F
:105A600000000000000000000000FE3F1830182079
:105A700018601840180018081808180CF80F180CAF
:105A800018081808180018001800184018401820A6
:105A90001830FE3F00000000000000000000000081
:105AA00000000000000000000000FE7F1870184099
:105AB00018C018801800181018101818F81F181897
:105AC00018101810180018001800180018001800F6
:105AD00018007E0000000000000000000000000030
